:020000040000FA
:100000000C947A000C94EF110C94C8110C94A2007B
:100010000C94A2000C94A2000C94A2000C94A410C6
:100020000C94A2000C94A2000C94A2000C94A200C8
:100030000C94A2000C94A2000C94A2000C94A200B8
:100040000C947E110C94A2000C944C110C9426116B
:100050000C94A2000C94A2000C94A2000C94A20098
:100060000C9416120C94A200084AD73B3BCE016EAA
:1000700084BCBFFDC12F3D6C74319ABD56833DDAFF
:100080003D00C77F11BED9E4BB4C3E916BAAAABE0E
:10009000000000803F0000000000240027002A002C
:1000A00000000000230026002900000000080002D4
:1000B000010000030407000000000000000001022E
:1000C00004081020408001020408102001020408E6
:1000D000102000000000250028002B000404040468
:1000E00004040404020202020202030303030303E2
:1000F0000200311311241FBECFEFD8E0DEBFCDBF09
:1001000012E0A0E0B1E0EEE5F8E302C005900D9248
:10011000AE30B107D9F724E0AEE0B2E001C01D92E5
:10012000A53AB207E1F710E0CAE7D0E004C0219792
:10013000FE010E94271CC937D107C9F70E940F147E
:100140000C942D1C0C940000DC0127E030E0A90188
:100150004A1B5B0B261B370BB901CA0108950F938D
:100160001F939B01AC01E0912B04F0912C04EA3524
:10017000F10551F4AB0127E030E0281B390BB90140
:10018000CA011F910F910895E43BF10529F40E94E3
:10019000A4009B01AC01F3CFEE30F14081F7E7E022
:1001A000F0E08F01081B190BCB01B801F0CFCF9302
:1001B000DF93EC01CA010E94AF00D7FD26C0209159
:1001C000290430912A04C217D307FCF49C01089734
:1001D000E0F468307105C8F483E0CC0FDD1F8A9528
:1001E000E1F7CD56DC4FC20FD31F288930E047E03E
:1001F00050E0461B570BC90102C0959587954A955B
:10020000E2F78170DF91CF91089580E0FBCFFC0190
:10021000538D448D252F30E0842F90E0821B930B6B
:10022000541710F0CF96089501970895FC01918D11
:10023000828D981761F0A28DAE0FBF2FB11D5D9614
:100240008C91928D9F5F9F73928F90E008958FEFB6
:100250009FEF0895FC01918D828D981731F0828D6A
:10026000E80FF11D858D90E008958FEF9FEF0895C1
:10027000FC01918D228D892F90E0805C9F4F821B25
:1002800091098F7399270895FC01A48DA80FB92FA8
:10029000B11DA35ABF4F2C91848D90E001968F73AE
:1002A0009927848FA689B7892C93A089B1898C91CD
:1002B000837080648C93938D848D981306C002881C
:1002C000F389E02D80818F7D80830895EF92FF92E6
:1002D0000F931F93CF93DF93EC0181E0888F9B8D69
:1002E0008C8D98131AC0E889F989808185FF15C023
:1002F0009FB7F894EE89FF896083E889F989808146
:100300008370806480839FBF81E090E0DF91CF9114
:100310001F910F91FF90EF900895F62E0B8D10E036
:100320000F5F1F4F0F731127E02E8C8D8E110CC0A5
:100330000FB607FCFACFE889F989808185FFF5CFF0
:10034000CE010E944401F1CFEB8DEC0FFD2FF11D8A
:10035000E35AFF4FF0829FB7F8940B8FEA89FB892D
:1003600080818062CFCFCF93DF93EC01888D88238B
:10037000B9F0AA89BB89E889F9898C9185FD03C008
:10038000808186FD0DC00FB607FCF7CF8C9185FFED
:10039000F2CF808185FFEDCFCE010E944401E9CFED
:1003A000DF91CF91089586EF92E00E94380121E01D
:1003B000892B09F420E0822F089580E090E0892BBA
:1003C00029F00E94D30181110C9400000895AF928E
:1003D000BF92CF92DF92EF92FF920F931F93CF9332
:1003E000DF936C017B018B01040F151FEB015E0194
:1003F000AE18BF08C017D10759F06991D601ED9129
:10040000FC910190F081E02DC6010995892B79F7C7
:10041000C501DF91CF911F910F91FF90EF90DF9079
:10042000CF90BF90AF900895833081F028F4813051
:1004300099F08230A9F008958730A9F08830C9F08A
:100440008430B1F4809180008F7D03C08091800062
:100450008F7780938000089584B58F7784BD089549
:1004600084B58F7DFBCF8091B0008F778093B000F3
:1004700008958091B0008F7DF9CFCF93DF93282F1F
:1004800030E0F901E655FF4F8491F901E254FF4F46
:10049000D491F901E452FF4FC491CC23A1F0811112
:1004A0000E941402EC2FF0E0EE0FFF1FE056FF4F0A
:1004B000A591B491EC91ED2381E090E009F480E006
:1004C000DF91CF91089580E090E0FACF1F93CF9312
:1004D000DF93282F30E0F901E655FF4F8491F901B1
:1004E000E254FF4FD491F901E452FF4FC491CC2361
:1004F000A9F0162F81110E941402EC2FF0E0EE0FEC
:10050000FF1FEE52FF4FA591B4918FB7F894EC9175
:10051000111108C0D095DE23DC938FBFDF91CF91FE
:100520001F910895DE2BF8CFCF93DF9390E0FC016D
:10053000E254FF4F249184529F4FFC018491882301
:10054000D1F090E0880F991FFC01EA56FF4FA5916A
:10055000B491FC01EE52FF4FC591D49161110EC0D0
:100560009FB7F8948C91E22FE0958E238C9328818D
:10057000E223E8839FBFDF91CF9108958FB7F8946E
:10058000EC91E22BEC938FBFF6CFCF92DF92EF92FC
:10059000FF921F93CF93DF936B017C018091050144
:1005A0008E3051F08F3FF9F0DF91CF911F91FF9086
:1005B000EF90DF90CF900895E0EFF0E0C491C7FD99
:1005C000F3CF61E08EE00E949402CC2309F479C05D
:1005D000C23009F09DC08091B100887F8560809312
:1005E000B100DDE873C08EE080930501E0EFF0E03C
:1005F000C491CF3FC9F2C13021F150F0C23009F4AB
:100600003EC0C7FDD1CF61E08EE00E949402E0CFF2
:1006100014BC15BC84B5826084BD85B5816085BD80
:10062000EAEEF0E0E491F0E0EE0FFF1FEE52FF4F34
:1006300085919491ECECF0E0E491E093E902C0E064
:10064000C0CF10928000109281008091810088605C
:100650008093810080918100816080938100EAEE27
:10066000F0E0E491F0E0EE0FFF1FEE52FF4F8591B6
:100670009491ECECF0E0E491E093E802A2CF1092C8
:10068000B0001092B1008091B00082608093B00001
:100690008091B10081608093B100EAEEF0E0E491D6
:1006A000F0E0EE0FFF1FEE52FF4F85919491909373
:1006B000E7028093E602ECECF0E0E491E093E502DF
:1006C00080CF85B5887F846085BDD6E410E0A0E743
:1006D000B3E0A70196010E94CC1828EE33E040E079
:1006E00050E00E94DF18C130F1F0C23081F1C11139
:1006F0005BCFD7BD2093F2023093F3024093F40214
:100700005093F50280916E00826080936E004CCF12
:10071000C13031F480918100887F816080938100B5
:10072000D4E017E4D4CF8D2F912F9093890080933C
:1007300088002093EE023093EF024093F002509332
:10074000F10280916F00826080936F002DCFD09373
:10075000B3002093EA023093EB024093EC025093F3
:10076000ED02809170008260809370001DCF3FB7D2
:10077000F8948091650290916602A0916702B09111
:10078000680226B5A89B05C02F3F19F00196A11D50
:10079000B11D3FBFBA2FA92F982F8827BC01CD01CB
:1007A000620F711D811D911D42E0660F771F881F2A
:1007B000991F4A95D1F708958F929F92AF92BF9259
:1007C000CF92DF92EF92FF926B017C010E94B70300
:1007D0004B015C01C114D104E104F104B9F00E94A1
:1007E000B703681979098A099B09683E7340810536
:1007F000910580F321E0C21AD108E108F10888EEE2
:10080000880E83E0981EA11CB11CE4CFFF90EF90EE
:10081000DF90CF90BF90AF909F908F9008952FB7AB
:10082000F8946091610270916202809163029091EC
:1008300064022FBF089508951F93CF93DF93C1E003
:10084000C0931C02882399F1D091B8001091BA008E
:100850008091BC008A7B8093BC0060E082E10E94B2
:10086000660260E083E10E9466021092DF02C0939C
:10087000BE021092B90261E082E10E94660261E06C
:1008800083E10E9466028091B9008E7F8093B90057
:100890008091B9008D7F8093B90088E48093B8007F
:1008A00085E48093BC001093BA00D093B800DF9128
:1008B000CF911F910895CF92DF92EF92FF920F9305
:1008C0001F93CF93DF93D82FC62F613208F098C0C3
:1008D0000E94B7036B017C018091DF0281116BC024
:1008E00081E08093DF028093BE029FEF9093BD0270
:1008F0001092BC029C0F9093BB028093BA0280912D
:10090000BA02DD0FD82BD093BA028091B9028130A0
:1009100009F078C01092B9020E94B7036B017C0104
:100920008091BA028093BB008091E1029091E20233
:10093000A091E302B091E402892B8A2B8B2BA1F0CA
:100940000E94B7030091E1021091E2022091E302BC
:100950003091E4026C197D098E099F09061717076B
:100960002807390708F448C08091BC0083FDD8CF20
:1009700085EC8093BC000E94B7036B017C018091E1
:10098000DF02813009F440C08091BC028C1710F462
:10099000C091BC02E9E9F2E0AFEBB2E080E08C1379
:1009A00055C08C2FDF91CF911F910F91FF90EF9049
:1009B000DF90CF9008958091E1029091E202A091A2
:1009C000E302B091E402892B8A2B8B2B09F484CFAC
:1009D0000E94B7030091E1021091E2022091E3022C
:1009E0003091E4026C197D098E099F0906171707DB
:1009F0002807390708F070CF8091E0020E941C049C
:100A0000C0E0CFCF85EEB5CF8091E1029091E202B8
:100A1000A091E302B091E402892B8A2B8B2B09F47D
:100A2000AECF0E94B7030091E1021091E202209143
:100A3000E3023091E4026C197D098E099F090617C3
:100A400017072807390708F09ACFD6CF91919D93C1
:100A50008F5FA5CF8F929F92AF92BF92CF92DF927E
:100A6000EF92FF920F931F93CF93DF93D091980251
:100A7000D13208F0D7C0182FC09197020E94B70357
:100A80006B017C018091DF0281116BC082E0809359
:100A9000DF021093BE028FEF8093BD021092BC0262
:100AA000D093BB02A7E7B2E0E9E9F2E080E0D81317
:100AB00091C01092BA028091BA02CC0FC82BC09399
:100AC000BA028091B902813009F088C01092B9024F
:100AD0000E94B7036B017C018091BA028093BB0036
:100AE0008091E1029091E202A091E302B091E402D0
:100AF000892B8A2B8B2BA1F00E94B7030091E10276
:100B00001091E2022091E3023091E4026C197D0918
:100B10008E099F09061717072807390708F442C0EE
:100B20008091BC0083FDD8CF85EC8093BC000E94EF
:100B3000B7036B017C018091DF02823009F450C061
:100B40008091BD028F3F09F46FC08091BD02803259
:100B500009F46CC08091BD02803309F469C084E05F
:100B600026C08091E1029091E202A091E302B0914F
:100B7000E402892B8A2B8B2B09F484CF0E94B703C4
:100B80008090E1029090E202A090E302B090E40233
:100B90006C197D098E099F0986169706A806B90665
:100BA00008F070CF8091E0020E941C0485E0109252
:100BB00076021092980210927502DF91CF911F91E8
:100BC0000F91FF90EF90DF90CF90BF90AF909F90EC
:100BD0008F9008959D9191938F5F69CF85EEA5CFFA
:100BE0008091E1029091E202A091E302B091E402CF
:100BF000892B8A2B8B2B09F49ECF0E94B70300917F
:100C0000E1021091E2022091E3023091E4026C19BA
:100C10007D098E099F09061717072807390708F06D
:100C20008ACFC0CF81E0C3CF80E0C1CF82E0BFCF09
:100C300083E0BDCF1F93CF93DF93162FC9E3D4E09A
:100C4000A881B98191E09093750298E690939702FC
:100C50001092760210929802ED91FC9111970190FA
:100C6000F081E02D682FCD01099588819981DC0103
:100C7000ED91FC910190F081E02D612F099581E0CB
:100C8000DF91CF911F910C942A0520913D02260FF0
:100C90003327331F21323105ECF42091DF02FC01B0
:100CA00090E080E0243069F082E00895A0913D0258
:100CB0002191AC01435E5D4FA40FB52FB11D2C9364
:100CC0000196861798F380913D02680F60933D026C
:100CD00080E0089581E008950895E0917402809184
:100CE0007302E81730F4F0E0E154FD4F808190E0AA
:100CF00008958FEF9FEF0895909174028091730291
:100D00002FEF3FEF981748F4E92FF0E0E154FD4F43
:100D1000208130E09F5F90937402C9010895809113
:100D2000730290917402891B990B0895CF92DF9200
:100D3000EF92FF920F931F93CF93DF937C01CB0130
:100D40008A0120917502222389F0EB016B01C40E08
:100D5000D51ECC15DD0569F06991D701ED91FC91A7
:100D60000190F081E02DC7010995F3CF642F0E9417
:100D70004506C801DF91CF911F910F91FF90EF9031
:100D8000DF90CF900895CF93DF931F92CDB7DEB75A
:100D90006983209175022223F9F020919802203274
:100DA00058F021E030E0FC013383228390E080E0C2
:100DB0000F90DF91CF91089580917602E82FF0E0B7
:100DC000E958FD4F998190838F5F809376028093DD
:100DD000980281E090E0ECCF61E0CE0101960E94A4
:100DE0004506F7CF90E080E00895CF93DF936091C0
:100DF0008D0470918E0480918F04909190040E94D4
:100E0000661AEB01C73E8FEFD807CCF060918904DA
:100E100070918A0480918B0490918C040E94661AD0
:100E200090E080E06A3171053CF48EE091E06A97D1
:100E30001CF4673E7F4F34F0DF91CF9108958AE52F
:100E400090E0FACF84EB90E0F7CF0E94F50621E026
:100E500030E08A35910511F030E020E0C9010895B5
:100E6000CF92DF92EF92FF920F931F93CF93DF9376
:100E700000D0CDB7DEB769834A83880F991F0091F0
:100E8000290410912A04000F111FE3E9F3E09F01E8
:100E9000235933402017310714F41192F8CF2981D8
:100EA000FC01ED56FC4F21838A81808360E08091B4
:100EB00027040E9466021016110604F5015011095C
:100EC000F801ED56FC4FE080D0902504C09023043B
:100ED00088E0F82E6E2D661F6627661F8C2D0E94F7
:100EE0006602EE0C61E08D2D0E94660260E08D2DA1
:100EF0000E946602FA94F110EDCFDDCF61E080919F
:100F000027040F900F90DF91CF911F910F91FF90C9
:100F1000EF90DF90CF900C946602EF92FF921F93B8
:100F2000CF93DF9397FD1DC02091290430912A04AF
:100F300082179307B4F4EC0123E0880F991F2A95D8
:100F4000E1F79C012D553C4F790111E0F701119219
:100F50007F0140E0612FCE010E9430071F5F1930F2
:100F6000A9F7DF91CF911F91FF90EF900895E0E8EE
:100F7000F0E0DF0102C0B595A7954A95E2F7AD0113
:100F8000FC0133E0EE0FFF1F3A95E1F7E60FF71F84
:100F9000ED56FC4F3089222331F0432B408B6F5F9D
:100FA00040890C94300740954323F8CF1F93CF938B
:100FB000DF93EC01122FCA010E94AF00D7FD16C0CB
:100FC0002091290430912A04C217D3077CF4883079
:100FD000910560F46830710548F4212FAB01BC0124
:100FE000CE01DF91CF911F910C94B707DF91CF9184
:100FF0001F9108951F93CF93DF93182FEB01CB011F
:101000000E948D0721E044E050E061E070E0CE01F5
:101010000E94D60721E043E050E062E070E0CE019C
:101020000E94D60721E042E050E063E070E0CE018C
:101030000E94D60721E041E050E064E070E0CE017C
:101040000E94D60721E046E050E063E070E0CE0168
:101050000E94D60721E045E050E064E070E0CE0158
:101060000E94D60721E044E050E065E070E0CE0148
:101070000E94D60721E043E050E066E070E0CE0138
:101080000E94D6071D34D9F421E042E050E064E02C
:1010900070E0CE010E94D60721E043E050E064E01A
:1010A00070E0CE010E94D60721E043E050E065E009
:1010B00070E0CE01DF91CF911F910C94D6071834C8
:1010C00071F421E043E050E063E070E0CE010E9463
:1010D000D60721E044E050E064E070E0EACFDF9121
:1010E000CF911F9108955F926F927F928F929F92FE
:1010F000AF92BF92CF92DF92EF92FF920F931F9326
:10110000CF93DF937C016B01D0E0C0E0912C812C68
:1011100097E0692E0C2FCF30D10541F189EF782E61
:101120007C0EC83008F4712C10E05E01A718B108DD
:10113000562C57180719872D810F8A151B0409F0A3
:101140009CF48FEF881A980A21E0C814D9040CF493
:1011500020E0452D411B50E0602F611B70E0C7016E
:101160000E94D6071F5FE7CF2196D4CFDF91CF91A2
:101170001F910F91FF90EF90DF90CF90BF90AF90B5
:101180009F908F907F906F905F9008950E942507A9
:101190006091690270E00E9473080E94F50661E0A8
:1011A00070E08A35910511F470E060E088E40C94F9
:1011B000FA070E9425076091040170E00E947308FD
:1011C0000E94F50661E070E08A35910511F470E047
:1011D00060E08DE40C94FA07CF92DF92EF92FF92D9
:1011E00090E080E00E948D0781E090E00E948D07F2
:1011F0000E9425076CE370E00E94730880916902E9
:10120000A0910401B0E09CE3899FA00DB11D1124C1
:1012100028EE33E00E940C1C6B017C010E940F043D
:10122000C60ED71EE81EF91EC0926A02D0926B024B
:10123000E0926C02F0926D02FF90EF90DF90CF9001
:101240000895EF92FF920F931F93CF93DF938C013A
:101250007B01EA0120E00E94D607AE014F5F5F4F9D
:1012600021E0B701C801DF91CF911F910F91FF904D
:10127000EF900C94D607EF92FF920F931F93CF93AA
:10128000DF938C01EB017A0120E00E94D607BE01BA
:101290006150710921E0A701C801DF91CF911F9131
:1012A0000F91FF90EF900C94D607FC010190002065
:1012B000E9F73197AF01481B590BBC0186EF92E06B
:1012C0000C94E7018EE291E00C9455098F929F9265
:1012D000AF92BF920F931F93CF93DF93CDB7DEB73B
:1012E000A1970FB6F894DEBF0FBECDBF19A2423052
:1012F00008F44AE08E010F5D1F4F842E912CB12C13
:10130000A12CA50194010E94DF18E62FB901CA01A2
:10131000EA30F4F4E05DD801EE938D01232B242B09
:10132000252B79F790E080E0109719F0CD010E940D
:101330005509A1960FB6F894DEBF0FBECDBFDF9161
:10134000CF911F910F91BF90AF909F908F90089574
:10135000E95CE1CFCF92DF92EF92FF92CF93DF93E0
:101360006B017C016DE286EF92E00E946601EC0168
:1013700066277727CB016C197D098E099F094AE002
:101380000E9466098C0F9D1FDF91CF91FF90EF9017
:10139000DF90CF900895CF93DF9397FF0AC00E940C
:1013A000AA09EC010E9462098C0F9D1FDF91CF9169
:1013B00008954AE00E946609F4CFCF93DF930E941C
:1013C0005509EC010E9462098C0F9D1FDF91CF919E
:1013D00008954F925F926F927F928F929F92AF92F9
:1013E000BF92CF92DF92EF92FF926B017C01AC0132
:1013F0009B010E94F31B8823B1F081E391E00E94DE
:1014000055097C010E9462098E0D9F1DFF90EF908F
:10141000DF90CF90BF90AF909F908F907F906F9014
:101420005F904F90089546015701E894B7F82FEF69
:101430003FEF4FE75FE7C501B4010E94F31B811145
:101440000DC02FEF3FEF4FE75FE7C501B4010E94EA
:10145000EF1918161CF485E391E0D1CF2FEF3FEF81
:101460004FE75FE4C701B6010E94751B18161CF414
:1014700089E391E0C4CF2FEF3FEF4FE75FECC70167
:10148000B6010E94EF1987FDF3CF20E030E0A901FB
:10149000C701B6010E94EF19B12CA12C87FF0AC029
:1014A0006DE286EF92E00E9466015C01F7FAF0942B
:1014B000F7F8F0942AE037ED43EA5BE3C701B601A1
:1014C0000E9411192B013C010E946D1A6B017C01D5
:1014D0000E949C1A9B01AC01C301B2010E94101929
:1014E0002B013C014AE0C701B6010E9466097C015C
:1014F000EA0CFB1C6EE286EF92E00E946601E80EA9
:10150000F91E20E030E040E251E4C301B2010E9444
:10151000821B2B013C010E946D1A4B01B12CA12CA6
:101520004AE0C501B4010E946609E80EF91EC50132
:10153000B4010E949C1A9B01AC01C301B2010E943C
:10154000101920E030E040E251E40E94821B0E942A
:101550006D1A90E080E04AE00E946609E80EF91EEC
:1015600051CFCF92DF92EF92FF92CF93DF9383E040
:101570000E943D02EC0182E00E943D02CC0FDD1F83
:10158000C82BD92B2091160230911702220F331F3E
:10159000220F331F2C2B3D2B2D30310549F02430E9
:1015A000310531F02230310519F02B30310599F435
:1015B0008091120290911302A0911402B091150231
:1015C0000197A109B1098093120290931302A0938D
:1015D0001402B09315022E30310539F0C901079776
:1015E000029718F02130310599F480911202909100
:1015F0001302A0911402B09115020196A11DB11D14
:101600008093120290931302A0931402B0931502D8
:101610008091120290911302A0911402B0911502D0
:1016200083709927AA27BB27892B8A2B8B2B09F03C
:101630008AC06091120270911302809114029091FD
:10164000150224E030E040E050E00E94AD1869014E
:10165000330FEE08FF0880910E0290910F02A091C7
:101660001002B09111028C159D05AE05BF0554F511
:101670008DE391E00E94DD0980916F0290917002EC
:101680008230910509F06AC080916902803408F0C7
:101690008FE38F5F809369020E94C60887E491E020
:1016A0000E945509809169026091040170E09CE3F9
:1016B000899F600D711D1124072E000C880B990B5A
:1016C0000E94CB0980910E0290910F02A09110020E
:1016D000B0911102C816D906EA06FB0664F58FE43C
:1016E00091E00E94DD0980916F029091700282303A
:1016F000910509F041C090916902992321F092343B
:1017000008F091E49150909369020E94C60887E422
:1017100091E00E945509809169026091040170E096
:101720009CE3899F600D711D1124072E000C880B0E
:10173000990B0E94CB09C0920E02D0920F02E09248
:101740001002F0921102D0931702C0931602DF919B
:10175000CF91FF90EF90DF90CF900895019709F01F
:101760009DCF80910401803408F08FE38F5F8093D8
:1017700004010E94D90892CF019749F69091040183
:10178000992321F0923408F091E491509093040150
:101790000E94D908BCCF2F923F924F925F926F92D6
:1017A0007F928F929F92AF92BF92CF92DF92EF92F1
:1017B000FF92CF93DF93CDB7DEB728970FB6F8949B
:1017C000DEBF0FBECDBF8091390490913A0421E075
:1017D0002093750228E620939702109276021092C9
:1017E0009802DC01ED91FC910190F081E02D6BE31A
:1017F000099580E00E942A056EE088E60E945B045D
:1018000010927402809373028091390490913A048B
:10181000DC01ED91FC910284F385E02D0995F82E11
:101820008091390490913A04DC01ED91FC9102849D
:10183000F385E02D099520E0822B9F2990933C04AD
:1018400080933B048091390490913A04DC01ED913E
:10185000FC910284F385E02D0995F82E80913904DE
:1018600090913A04DC01ED91FC910284F385E02D26
:10187000099520E0822B9F2990933E0480933D049C
:101880008091390490913A04DC01ED91FC9102843D
:10189000F385E02D0995F82E8091390490913A0452
:1018A000DC01ED91FC910284F385E02D099520E0A7
:1018B000822B9F299093400480933F0480913904A8
:1018C00090913A04DC01ED91FC910284F385E02DC6
:1018D0000995F82E8091390490913A04DC01ED913C
:1018E000FC910284F385E02D099520E0822B9F294D
:1018F00090934204809341048091390490913A047A
:10190000DC01ED91FC910284F385E02D0995F82E20
:101910008091390490913A04DC01ED91FC910284AC
:10192000F385E02D099520E0822B9F2990934404B4
:10193000809343048091390490913A04DC01ED9145
:10194000FC910284F385E02D0995F82E80913904ED
:1019500090913A04DC01ED91FC910284F385E02D35
:10196000099520E0822B9F2990934604809345049B
:101970008091390490913A04DC01ED91FC9102844C
:10198000F385E02D0995F82E8091390490913A0461
:10199000DC01ED91FC910284F385E02D0995612C29
:1019A0007F2C682A792A70924804609247046091DB
:1019B000410470914204072E000C880B990B0E9481
:1019C0009E1A20E030EF41E456E40E94111920E015
:1019D00030E04AEA53E40E94F4196093550470938E
:1019E0005604809357049093580460913B0470917F
:1019F0003C04072E000C880B990B0E949E1A20E0D5
:101A000030E040E858E30E94821B4B015C01809269
:101A1000590490925A04A0925B04B0925C046091C5
:101A20003D0470913E04072E000C880B990B0E9418
:101A30009E1A20E030E040E858E30E94821B6B01D0
:101A40007C01C0925D04D0925E04E0925F04F0924B
:101A5000600460913F0470914004072E000C880BD5
:101A6000990B0E949E1A20E030E040E858E30E9463
:101A7000821B1B012C01209261043092620440926F
:101A800063045092640420E030E0A901C501B40170
:101A90000E94751BA501940118160CF05058C20144
:101AA000B1010E9411199B01AC01C701B6010E944E
:101AB000901920E030E044EB53E40E94821B20E0C8
:101AC00030E040E05FE30E94821B2BED3FE049E401
:101AD00050E40E94F41960937D0470937E04809317
:101AE0007F049093800420E030E0A901C701B60193
:101AF0000E94751B181624F0F7FAF094F7F8F0948A
:101B0000A7019601C201B1010E9411199B01AC010C
:101B1000C501B4010E94901920E030E044EB53E489
:101B20000E94821B20E030E040E05FEB0E94821BBD
:101B30002BED3FE049E450E40E94F41960938104E6
:101B4000709382048093830490938404609145048D
:101B500070914604072E000C880B990B0E949E1A68
:101B600020E030E043E852E40E94F4196B017C016C
:101B70006091430470914404072E000C880B990B6C
:101B80000E949E1A20E030E043E852E40E94F419DB
:101B90002091490430914A0440914B0450914C04E7
:101BA0000E94101960936504709366048093670423
:101BB0009093680420914D0430914E0440914F045D
:101BC00050915004C701B6010E9410196093690436
:101BD00070936A0480936B0490936C04B301770C48
:101BE000880B990B0E949E1A20E030E043E852E4F3
:101BF0000E94F419209151043091520440915304F1
:101C0000509154040E94101960936D0470936E04F7
:101C100080936F04909370040E940F04C090990405
:101C2000D0909A04E0909B04F0909C046C197D097C
:101C30008E099F090E949C1A2FE632E143E85AE37D
:101C40000E94821B6B017C01C0929504D092960485
:101C5000E0929704F0929804209165043091660414
:101C600040916704509168040E94821B2B013C0143
:101C7000AC019B01609171047091720480917304B6
:101C8000909174040E94111960937104709372040E
:101C900080937304909374042091690430916A04D2
:101CA00040916B0450916C04C701B6010E94821BE5
:101CB0004B015C01AC019B0160917504709176044D
:101CC00080917704909178040E94111960937504B3
:101CD00070937604809377049093780420916D0438
:101CE00030916E0440916F0450917004C701B601A9
:101CF0000E94821B2091790430917A0440917B04E8
:101D000050917C040E9411196D837E838F83988784
:101D10006093790470937A0480937B0490937C049D
:101D2000C090A104D090A204E090A304F090A40479
:101D300080919D0490919E04A0919F04B091A00475
:101D400089839A83AB83BC832091890430918A0470
:101D500040918B0450918C04C301B2010E9411196F
:101D6000A70196010E94821B2B013C0120917D045A
:101D700030917E0440917F045091800469817A8182
:101D80008B819C810E94821B9B01AC01C301B2012B
:101D90000E9411196093890470938A0480938B04C4
:101DA00090938C0420918D0430918E0440918F0487
:101DB00050919004C501B4010E941119A701960128
:101DC0000E94821B6B017C0120918104309182046E
:101DD000409183045091840469817A818B819C8134
:101DE0000E94821B9B01AC01C701B6010E94111920
:101DF00060938D0470938E0480938F04909390046D
:101E00008D819E81AF81B8858093910490939204D7
:101E1000A0939304B09394040E940F0460939904D8
:101E200070939A0480939B0490939C0428960FB619
:101E3000F894DEBF0FBECDBFDF91CF91FF90EF9042
:101E4000DF90CF90BF90AF909F908F907F906F90DA
:101E50005F904F903F902F9008958F929F92AF92F6
:101E6000BF92CF92DF92EF92FF920F931F93CF9387
:101E7000DF938C01EB017A01209709F44AC061508D
:101E800071090E94D70091E0D82ED92687E0E81684
:101E9000F10439F157018FEFA81AB80AA501BE0164
:101EA000C8010E94D70091E0C82EC926D11060C099
:101EB000B1F580E0DF91CF911F910F91FF90EF90EE
:101EC000DF90CF90BF90AF909F908F900895DD20CE
:101ED00059F0C1100BC0A701BE01C8010E943B0907
:101EE00045C0D110F8CFE5CFC1100DC00E945518E4
:101EF00022E030E040E050E00E94AD186130710512
:101F00008105910541F3A701BE01C8010E94210985
:101F10002DC0D12C4730510509F0BCCFCACF209736
:101F200091F34E0181E0881A9108A701B401C8011C
:101F30000E94D7008111CBCFA501BE01C8010E942C
:101F4000D7008111C4CFA501B401C8010E94D700F8
:101F50008111BDCF20E0A701BE01C8010E94D607B4
:101F600021E0A501B401C8010E94D60781E0A2CFFB
:101F7000209709F4AECFD5CF85ED8093BC0080913A
:101F8000E1029091E202A091E302B091E40207968F
:101F9000A11DB11D23E0B695A795979587952A9524
:101FA000D1F72091BC0024FD03C01092DF020895F8
:101FB0004091E1025091E2026091E3027091E402EB
:101FC000452B462B472B69F30097A105B10541F03E
:101FD0002AE22A95F1F700C00197A109B109E1CFE2
:101FE0008091E0020C941C04CF92DF92EF92FF925A
:101FF0001F93CF93DF930E940F04C0901802D090DC
:102000001902E0901A02F0901B026C197D098E09EA
:102010009F09643F7140810591050CF48DC080914A
:102020006F0290917002019663E070E00E94F81BCD
:102030009093700280936F0280E691E00E945509B0
:1020400060916F0270917002072E000C880B990B43
:1020500097FF27C00E94AA090E9462090E940F04EC
:10206000609318027093190280931A0290931B02D6
:10207000C0916F02D0917002C130D105B1F480E4FB
:10208000E3EAF3E0A3EEB3E001900D928A95E1F765
:10209000DF91CF911F91FF90EF90DF90CF900C9444
:1020A000D9084AE00E946609D7CFC230D10549F469
:1020B000DF91CF911F91FF90EF90DF90CF900C9424
:1020C000C6082097C9F590E080E00E948D0781E066
:1020D00090E00E948D0780E4E3EEF3E0A3EAB3E032
:1020E00001900D928A95E1F783E9E82E83E0F82EBE
:1020F0008091290490912A04C817D907A4F4670194
:1021000080E1C80ED11C11E0F60141916F01612FF1
:10211000CE010E9430071F5F1930B1F72196F8E019
:10212000EF0EF11CE5CFDF91CF911F91FF90EF9063
:10213000DF90CF900C94EC08DF91CF911F91FF902E
:10214000EF90DF90CF9008951F920F920FB60F92ED
:1021500011242F933F934F935F936F937F938F93AC
:102160009F93AF93BF93EF93FF938091EA02909177
:10217000EB02A091EC02B091ED02892B8A2B8B2B04
:10218000D1F19091E502E091E602F091E7028081C1
:10219000892780838091EA029091EB02A091EC0262
:1021A000B091ED02181619061A061B069CF48091D0
:1021B000EA029091EB02A091EC02B091ED0201973E
:1021C000A109B1098093EA029093EB02A093EC027B
:1021D000B093ED02FF91EF91BF91AF919F918F91DD
:1021E0007F916F915F914F913F912F910F900FBE13
:1021F0000F901F90189580910501E0EFF0E0E491B9
:102200009FEF90930501E13051F030F0E23069F03A
:1022100060E00E946602DECF10926E00F9CF9091CE
:102220006F009D7F90936F00F3CF909170009D7F22
:102230009093700091E09093B0009091B100987FDE
:1022400094609093B1001092B300E2CF1F920F926E
:102250000FB60F9211242F933F934F935F936F9379
:102260007F938F939F93AF93BF93EF93FF9386EFEB
:1022700092E00E944401FF91EF91BF91AF919F9135
:102280008F917F916F915F914F913F912F910F901F
:102290000FBE0F901F9018951F920F920FB60F92BE
:1022A00011242F938F939F93EF93FF93E091060355
:1022B000F09107038081E0910C03F0910D0382FD02
:1022C0001BC0908180910F038F5F8F73209110034B
:1022D000821741F0E0910F03F0E0EA50FD4F958F37
:1022E00080930F03FF91EF919F918F912F910F900A
:1022F0000FBE0F901F9018958081F4CF1F920F9200
:102300000FB60F9211242F933F938F939F93AF9308
:10231000BF938091610290916202A0916302B0919B
:1023200064023091600223E0230F2D3758F50196A7
:10233000A11DB11D209360028093610290936202FF
:10234000A0936302B093640280916502909166024B
:10235000A0916702B09168020196A11DB11D809302
:10236000650290936602A0936702B0936802BF91E2
:10237000AF919F918F913F912F910F900FBE0F9032
:102380001F90189526E8230F0296A11DB11DD2CFEC
:102390001F920F920FB60F9211242F933F934F93DA
:1023A0005F936F937F938F939F93AF93BF93EF93BD
:1023B000FF93E0910201F09103010995FF91EF91E4
:1023C000BF91AF919F918F917F916F915F914F914D
:1023D0003F912F910F900FBE0F901F9018951F9255
:1023E0000F920FB60F9211242F933F934F935F9349
:1023F0006F937F938F939F93AF93BF93EF93FF93CD
:10240000E0910001F09101010995FF91EF91BF91D9
:10241000AF919F918F917F916F915F914F913F917C
:102420002F910F900FBE0F901F9018951F920F9233
:102430000FB60F9211242F933F934F935F936F9397
:102440007F938F939F93AF93BF93EF93FF9380916D
:10245000B900887F803609F44AC0F0F5883209F463
:10246000A5C018F5803109F499C0B8F4882309F49F
:10247000F5C0883009F492C0FF91EF91BF91AF9100
:102480009F918F917F916F915F914F913F912F918C
:102490000F900FBE0F901F901895883109F486C0D9
:1024A000803251F78093BD0214C0803409F49BC080
:1024B00040F48033B9F38833F9F68093BD0285EC9C
:1024C000AEC0803509F483C0883509F494C08834DF
:1024D00099F60E94BC0FD0CF883909F48AC038F52C
:1024E000883729F050F4883611F0803729F683E0D8
:1024F0008093DF0210925F0255C0883809F479C0DA
:10250000803919F0803809F0B7CF80915F028032AE
:1025100008F06FC0E0915F0281E08E0F80935F0250
:102520008091BB00F0E0E15CFD4F80833BC0803BCD
:1025300039F0D0F4803A09F477C0883A09F09CCF9A
:1025400084E08093DF0210923E0210923D02F0E0A0
:10255000E0E0099580913D0281110FC081E08093F8
:102560003D0210921D0209C0803C09F4A8CF883CAE
:1025700009F4A5CF883B09F07FCFE0913E0281E0CE
:102580008E0F80933E02F0E0E35EFD4F80818093EA
:10259000BB0090913E0280913D0229C08091BA0219
:1025A0008093BB0085EC8093BC0066CF9091BC0209
:1025B0008091BB02981758F5E091BC0281E08E0F24
:1025C0008093BC02F0E0E756FD4F8081E9CFE091B7
:1025D000BC0281E08E0F8093BC028091BB00F0E0D2
:1025E000E756FD4F80839091BC028091BB02981703
:1025F000C8F285E8D8CFE091BC0281E08E0F8093CD
:10260000BC028091BB00F0E0E756FD4F80838091D3
:10261000BE0281115ECF81E08093B90284EA80938B
:10262000BC001092DF0228CF85EC8093BC00109292
:10263000DF0280915F02803230F4E0915F02F0E0CF
:10264000E15CFD4F108260915F0270E08FE392E0E9
:10265000F0E0E0E0099510925F020ECF1092BD020B
:1026600038CFCF93DF931092F9021092F80288EEE0
:1026700093E0A0E0B0E08093FA029093FB02A09375
:10268000FC02B093FD022EE031E03093F70220937C
:10269000F60225EC30E0309303032093020324EC90
:1026A00030E0309305032093040320EC30E03093B6
:1026B00007032093060321EC30E0309309032093B5
:1026C000080322EC30E030930B0320930A0326EC3E
:1026D00030E030930D0320930C0310920F031092FF
:1026E00010031092110310921203109230041092F2
:1026F0002F048093310490933204A0933304B09359
:10270000340480E291E090932E0480932D048DE2B6
:1027100094E090933A04809339048AE097EDA3EA19
:10272000BCE380939D0490939E04A0939F04B09378
:10273000A00488E491EEAAE7BFE38093A1049093FC
:10274000A204A093A304B093A404C5E0D0E0D09366
:102750002404C093230484E090E0909326048093A3
:10276000250486E090E0909328048093270482E07B
:1027700090E090932A048093290461E085E00E9410
:10278000940261E0809125040E94940261E08091AE
:1027900027040E94940261E0809127040E9466024F
:1027A000D0932404C0932304E3EAF3E083EE93E0A0
:1027B00011928E179F07E1F7D0E0C0E080912904C5
:1027C00090912A04C817D9073CF540E06FE0CE018C
:1027D0000E9430078091290490912A04C817D907D4
:1027E0002CF447E06BE0CE010E94300740E069E046
:1027F000CE010E943007CE010E948D0780912904EE
:1028000090912A04C817D9072CF440E06CE0CE015F
:102810000E9430072196D2CFDF91CF910895CF93B8
:10282000DF93CDB7DEB72B970FB6F894DEBF0FBEA0
:10283000CDBF789484B5826084BD84B5816084BD49
:1028400085B5826085BD85B5816085BD80916E004E
:10285000816080936E00109281008091810082607F
:1028600080938100809181008160809381008091BC
:1028700080008160809380008091B10084608093AB
:10288000B1008091B00081608093B00080917A00A7
:10289000846080937A0080917A00826080937A00CD
:1028A00080917A00816080937A0080917A008068BC
:1028B00080937A001092C10068EE73E080E090E0AF
:1028C0000E94DC030E94620983E791E00E94DD0917
:1028D0008CE991E00E94DD0985EB91E00E945509A9
:1028E000C12CD12C7601460157012601370110E099
:1028F00000E0C80168EE73E00E94F81B892B21F408
:1029000089EC91E00E9455098091390490913A0434
:1029100021E02093750238E63093970210927602F8
:1029200010929802DC01ED91FC910190F081E02D74
:1029300063E4099580E00E942A0566E088E60E942B
:102940005B04109274028093730280913904909119
:102950003A04DC01ED91FC910284F385E02D0995A8
:102960008F838091390490913A04DC01ED91FC91C0
:102970000284F385E02D0995BF81BA8319822981EC
:102980003A81282B392B3B872A87809139049091F3
:102990003A04DC01ED91FC910284F385E02D099568
:1029A000382E8091390490913A04DC01ED91FC912C
:1029B0000284F385E02D09953C821B822B813C81AA
:1029C000282B392B38872F838091390490913A0432
:1029D000DC01ED91FC910284F385E02D0995898756
:1029E0008091390490913A04DC01ED91FC910284CC
:1029F000F385E02D09951C012A853B85B901330F2C
:102A0000880B990B0E949E1A20E030E043E852E4C4
:102A10000E94F4199B01AC01C301B2010E9411197B
:102A20002B013C01AF81B885BD01BB0F880B990B11
:102A30000E949E1A20E030E043E852E40E94F4191C
:102A40009B01AC01C501B4010E9411194B015C014D
:102A5000B985BE831D826D817E8162297329072E0F
:102A6000000C880B990B0E949E1A20E030E043E88E
:102A700052E40E94F4199B01AC01C701B6010E9407
:102A800011196B017C010F5F1F4F083B2BE01207F0
:102A900009F02FCF20E030E84BE355E4C301B20149
:102AA0000E94F4196093490470934A0480934B0484
:102AB00090934C0420E030E84BE355E4C501B401A9
:102AC0000E94F41960934D0470934E0480934F0458
:102AD0009093500420E030E84BE355E4C701B60181
:102AE0000E94F4196093510470935204809353042C
:102AF000909354040E9462098BEC91E00E94DD09DE
:102B00008EEF91E00E9455096091490470914A044A
:102B100080914B0490914C040E94E90989E092E075
:102B20000E94550960914D0470914E0480914F04AC
:102B3000909150040E94E90981ED91E00E945509AD
:102B40006091510470915204809153049091540407
:102B50000E94E90986ED91E00E94DD0983E791E09A
:102B60000E94550968EB7BE080E090E00E94DC0366
:102B700060E089E10E941A0660E08AE10E941A067C
:102B800068E08BE10E941A0660E08CE10E941A0660
:102B900061E08BE60E941A060E94CB0B1092710432
:102BA00010927204109273041092740410927504BF
:102BB00010927604109277041092780480917D042C
:102BC00090917E04A0917F04B09180048093890449
:102BD00090938A04A0938B04B0938C048091810419
:102BE00090918204A0918304B091840480938D0419
:102BF00090938E04A0938F04B09390040E940F04CE
:102C00006093990470939A0480939B0490939C041E
:102C100060E083E00E94940260E082E00E949402FF
:102C200060E087E00E94940261E083E00E94660217
:102C300061E082E00E94660261E087E00E94660235
:102C400021EB3AE030930301209302018091690067
:102C5000837F846080936900E99A30930101209317
:102C60000001809169008C7F816080936900E89AFF
:102C700080E480937C0080917A00806480937A0065
:102C800080917A0086FDFCCF609178007091790088
:102C9000072E000C880B990B6115710581059105B4
:102CA00011F00E94A4188091290490912A0418160A
:102CB000190634F441E06CE090E080E00E943007B7
:102CC0008091290490912A041816190634F440E0E2
:102CD0006AE090E080E00E943007809129049091A2
:102CE0002A04029734F041E06CE081E090E00E9419
:102CF00030078091290490912A04029734F040E033
:102D00006AE081E090E00E9430070E94EC0827E032
:102D1000A22E992493940E94CB0B89EF91E00E94FC
:102D2000DD096091890470918A0480918B049091EF
:102D30008C040E94E90983E092E00E94DD09609121
:102D40008D0470918E0480918F04909190040E9464
:102D5000E90964E670E080E090E00E94DC030E94F4
:102D6000F5069093720280937102865A9F4F68E62F
:102D700071E00E94F81B90932C0480932B048091A7
:102D80006F02909170028130910579F40E94D90808
:102D900080E090E0892B09F4BECF0E94D301882304
:102DA00009F4B9CF0E940000B4CFD12CC12CB12CB2
:102DB000029731F40E94C608EBCFAFEFCA1ADA0AC5
:102DC000CB823FE0C316D10409F460C00E945518BD
:102DD00022E030E040E050E00E94AD182B013C01C1
:102DE0008B8199EFE92EE80E883008F4E12CF12C64
:102DF000D601AE19B109BA83A9832A2CBB812B1A3B
:102E00002E0C3A2C3E188B2E8E182F2D2E0D2B8328
:102E100089819A812817190609F07CF6022D0F0D79
:102E2000B1E04B1651046104710429F4032D0F190C
:102E3000282D2F192B8310E09B81892F90E09C83F4
:102E40008B83A801BC0190E080E00E94D70088231A
:102E500049F0A8016B817C8190E080E00E942D0FF9
:102E60008111B82EA8016B817C8181E090E00E94E5
:102E7000D700882349F0A8016B817C8181E090E034
:102E80000E942D0F8111B82EF394BFCFC0906A021B
:102E9000D0906B02E0906C02F0906D020E940F04E3
:102EA000C616D706E806F90608F06EC080916902DA
:102EB000A0910401B0E02CE3829FA00DB11D11246C
:102EC00028EE33E00E940C1C6B017C010E940F0471
:102ED000C60ED71EE81EF91EC0926A02D0926B027F
:102EE000E0926C02F0926D028091710290917202F8
:102EF000009721F0843B910509F046C08091290498
:102F000090912A0482309105CCF02091AB0327FFE9
:102F100018C02091AA0320FD37C02091AB0327FBE6
:102F2000222720F90297A4F0292550E040E070E024
:102F300060E081E090E00E94B7070AC01816190609
:102F40001CF52091AA0320FF1FC08130910529F7AD
:102F50008091290490912A041816190664F420918E
:102F6000AA032170292547E050E067E070E090E077
:102F700080E00E94B7076AE070E080E090E00E9485
:102F8000C50210926E0204CFB11002CF80916E0282
:102F90008111FECE0E9425076C011A821982F12C44
:102FA000E12C10E000E049815A81B801C6010E947D
:102FB000D700882319F03FEFE31AF30A0F5F1F4F82
:102FC0000830110581F789819A8101969A83898356
:102FD000089739F7EF2809F0DBCE91E090936E0265
:102FE000A5E0B0E0BA83A98368EC70E080E090E0EF
:102FF0000E94C50268EE73E080E090E00E94DC036E
:1030000029813A81215031093A832983232B61F7A1
:10301000BFCE8F929F92AF92BF92CF92DF92EF92EC
:10302000FF92CF93DF93EC01688179818A819B8144
:10303000611571058105910521F464E279ED8BE557
:1030400097E02DE133EF41E050E00E94AD184901D7
:103050005A019B01AC01A7EAB1E40E94CC186B01B4
:103060007C01ACEEB4EFA50194010E94DA18C60E03
:10307000D71EE81EF91EF7FE06C081E0C81AD10867
:10308000E10880E8F80AC882D982EA82FB82C70197
:10309000B6019F77DF91CF91FF90EF90DF90CF90B7
:1030A000BF90AF909F908F9008958F929F92AF9214
:1030B000BF92CF92DF92EF92FF92609106017091E2
:1030C0000701809108019091090161157105810541
:1030D000910521F464E279ED8BE597E02DE133EF82
:1030E00041E050E00E94AD1849015A019B01AC013A
:1030F000A7EAB1E40E94CC186B017C01ACEEB4EFFE
:10310000A50194010E94DA18C60ED71EE81EF91E0A
:10311000F7FE06C081E0C81AD108E10880E8F80A85
:10312000C0920601D0920701E0920801F0920901D5
:10313000C701B6019F77FF90EF90DF90CF90BF90CF
:10314000AF909F908F900895609306017093070150
:1031500080930801909309010895052E97FB1EF4B2
:1031600000940E94C41857FD07D00E94DF1807FC86
:1031700003D04EF40C94C418509540953095219589
:103180003F4F4F4F5F4F0895909580957095619593
:103190007F4F8F4F9F4F08950E940119A59F900D5B
:1031A000B49F900DA49F800D911D11240895B7FF29
:1031B0000C94CC180E94CC18821B930B0895A1E2AA
:1031C0001A2EAA1BBB1BFD010DC0AA1FBB1FEE1FA1
:1031D000FF1FA217B307E407F50720F0A21BB30BEC
:1031E000E40BF50B661F771F881F991F1A9469F768
:1031F00060957095809590959B01AC01BD01CF01C4
:103200000895A29FB001B39FC001A39F700D811DBF
:103210001124911DB29F700D811D1124911D0895DF
:103220005058BB27AA270E9428190C943B1B0E94C8
:103230002D1B38F00E94341B20F039F49F3F19F405
:1032400026F40C94031B0EF4E095E7FB0C94FD1A96
:10325000E92F0E944C1B58F3BA17620773078407C3
:10326000950720F079F4A6F50C946E1B0EF4E0950A
:103270000B2EBA2FA02D0B01B90190010C01CA0130
:10328000A0011124FF27591B99F0593F50F4503EDB
:1032900068F11A16F040A22F232F342F4427585FCD
:1032A000F3CF469537952795A795F0405395C9F7E5
:1032B0007EF41F16BA0B620B730B840BBAF091509D
:1032C000A1F0FF0FBB1F661F771F881FC2F70EC03C
:1032D000BA0F621F731F841F48F48795779567950F
:1032E000B795F7959E3F08F0B0CF9395880F08F0FB
:1032F0009927EE0F9795879508950E942D1B60F0F2
:1033000080E891E009F49EEF0E94341B28F040E829
:1033100051E071F45EEF0CC00C94031B0C946E1B17
:10332000E92FE0780E944C1B40F3092E052AB1F3E7
:10333000261737074807590738F00E2E07F8E025FB
:1033400069F0E025E0640AC0EF6307F8009407FA2B
:10335000DB01B9019D01DC01CA01AD01EF930E94BF
:103360000B1A0E943B1B0E94C0195F91552339F034
:103370002BED3FE049E450FD49EC0C941119089500
:10338000DF93DD27B92FBF7740E85FE316161706F6
:1033900048075B0718F4D92F0E947A1B9F938F93DD
:1033A0007F936F930E94EF1BE8E6F0E00E94061BFC
:1033B0000E943B1B2F913F914F915F910E94951B63
:1033C000DD2351F09058A2EA2AED3FE049EC5FE39B
:1033D000D0785D270E942819DF910C943B1B0E9436
:1033E000D91A08F481E008950E94081A0C943B1B36
:1033F0000E94341B58F00E942D1B40F029F45F3FBF
:1034000029F00C94FD1A51110C946F1B0C94031BA2
:103410000E944C1B68F39923B1F3552391F3951B3C
:10342000550BBB27AA2762177307840738F09F5FE5
:103430005F4F220F331F441FAA1FA9F335D00E2E52
:103440003AF0E0E832D091505040E695001CCAF7BF
:103450002BD0FE2F29D0660F771F881FBB1F261782
:1034600037074807AB07B0E809F0BB0B802DBF0159
:10347000FF2793585F4F3AF09E3F510578F00C9428
:10348000FD1A0C946F1B5F3FE4F3983ED4F38695CE
:1034900077956795B795F7959F5FC9F7880F911D49
:1034A0009695879597F90895E1E0660F771F881F35
:1034B000BB1F621773078407BA0720F0621B730BE8
:1034C000840BBA0BEE1F88F7E09508950E946D1AE1
:1034D0006894B1110C946F1B08950E94541B88F0DE
:1034E0009F5798F0B92F9927B751B0F0E1F0660FC8
:1034F000771F881F991F1AF0BA95C9F714C0B13009
:1035000091F00E946E1BB1E008950C946E1B672F22
:10351000782F8827B85F39F0B93FCCF38695779537
:103520006795B395D9F73EF4909580957095619520
:103530007F4F8F4F9F4F0895E89409C097FB3EF44B
:1035400090958095709561957F4F8F4F9F4F9923F0
:10355000A9F0F92F96E9BB279395F695879577956E
:103560006795B795F111F8CFFAF4BB0F11F460FF2E
:103570001BC06F5F7F4F8F4F9F4F16C0882311F086
:1035800096E911C0772321F09EE8872F762F05C09A
:10359000662371F096E8862F70E060E02AF09A9535
:1035A000660F771F881FDAF7880F9695879597F92A
:1035B0000895990F0008550FAA0BE0E8FEEF1616C4
:1035C0001706E807F907C0F012161306E407F50717
:1035D00098F0621B730B840B950B39F40A2661F08B
:1035E000232B242B252B21F408950A2609F4A1402E
:1035F000A6958FEF811D811D089597F99F6780E83B
:1036000070E060E008959FEF80EC0895DF93CF9322
:103610001F930F93FF92EF92DF927B018C016894CE
:1036200006C0DA2EEF010E94951BFE01E894A591D9
:103630002591359145915591A6F3EF010E942819E6
:10364000FE019701A801DA9469F7DF90EF90FF90EF
:103650000F911F91CF91DF91089500240A941616BF
:10366000170618060906089500240A941216130670
:10367000140605060895092E0394000C11F48823FE
:1036800052F0BB0F40F4BF2B11F460FF04C06F5F1A
:103690007F4F8F4F9F4F089557FD9058440F551FF0
:1036A00059F05F3F71F04795880F97FB991F61F0C4
:1036B0009F3F79F087950895121613061406551F3B
:1036C000F2CF4695F1DF08C0161617061806991FA7
:1036D000F1CF86957105610508940895E894BB279C
:1036E00066277727CB0197F908950E94D91A08F425
:1036F0008FEF08959B01AC0160E070E080E89FE3EC
:103700000C94F4190E94951B0C943B1B0E942D1BDA
:1037100038F00E94341B20F0952311F00C94FD1A10
:103720000C94031B11240C946F1B0E944C1B70F310
:10373000959FC1F3950F50E0551F629FF001729F56
:10374000BB27F00DB11D639FAA27F00DB11DAA1F65
:10375000649F6627B00DA11D661F829F2227B00DB2
:10376000A11D621F739FB00DA11D621F839FA00D3D
:10377000611D221F749F3327A00D611D231F849F8D
:10378000600D211D822F762F6A2F11249F575040E4
:103790009AF0F1F088234AF0EE0FFF1FBB1F661F5F
:1037A000771F881F91505040A9F79E3F510580F028
:1037B0000C94FD1A0C946F1B5F3FE4F3983ED4F316
:1037C000869577956795B795F795E7959F5FC1F7CC
:1037D000FE2B880F911D9695879597F908959B016B
:1037E000AC010C94821B0E94D91A880B990B089586
:1037F00097FB072E16F4009407D077FD09D00E949E
:10380000131C07FC05D03EF4909581959F4F0895B9
:10381000709561957F4F08950E940119B7FF089533
:10382000821B930B0895AA1BBB1B51E107C0AA1F63
:10383000BB1FA617B70710F0A61BB70B881F991F51
:103840005A95A9F780959095BC01CD010895EE0F8A
:10385000FF1F0590F491E02D0994F894FFCF1B040D
:103860001B0401FF01000000000000006601E701E9
:103870000701B301380116012A0100000000C30648
:103880009606F2066C068F067C066D060D0A006E23
:10389000616E00696E66006F766600436C6F636BE5
:1038A000776973650044656C61793A2000436F75F0
:1038B0006E746572636C6F636B77697365005377C1
:1038C000697463686564206D6F646520746F3A2065
:1038D000003D3D3D3D3D3D3D3D3D3D3D3D3D3D3D55
:1038E0003D3D3D3D3D3D3D3D3D3D3D3D3D3D3D3D08
:1038F0003D3D3D3D3D3D3D3D3D0043616C63756C4F
:103900006174696E67206779726F206F6666736590
:10391000747300444F204E4F54204D4F5645204D58
:10392000505536303530002E00446F6E6521005AF8
:10393000203A200050726F6772616D2077696C6C5D
:103940002073746172742061667465722033207311
:1039500065636F6E647300616E676C6558203A2012
:0C3960000009616E676C6559203A200078
:107800000C94343C0C94513C0C94513C0C94513CE1
:107810000C94513C0C94513C0C94513C0C94513CB4
:107820000C94513C0C94513C0C94513C0C94513CA4
:107830000C94513C0C94513C0C94513C0C94513C94
:107840000C94513C0C94513C0C94513C0C94513C84
:107850000C94513C0C94513C0C94513C0C94513C74
:107860000C94513C0C94513C11241FBECFEFD8E036
:10787000DEBFCDBF11E0A0E0B1E0ECE9FFE702C060
:1078800005900D92A230B107D9F712E0A2E0B1E065
:1078900001C01D92AD30B107E1F70E942D3D0C945F
:1078A000CC3F0C94003C982F959595959595959582
:1078B000905D8F708A307CF0282F295A8091C0000B
:1078C00085FFFCCF9093C6008091C00085FFFCCF60
:1078D0002093C6000895282F205DF0CF982F809127
:1078E000C00085FFFCCF9093C6000895EF92FF92F1
:1078F0000F931F93EE24FF2487018091C00087FD22
:1079000017C00894E11CF11C011D111D81E4E8164B
:1079100082E4F8068FE0080780E0180770F3E09132
:107920000401F091050109958091C00087FFE9CF1E
:107930008091C6001F910F91FF90EF9008950E94D3
:10794000763C982F8091C00085FFFCCF9093C600B5
:1079500091362CF490330CF09053892F089597555D
:10796000892F08951F930E949F3C182F0E949F3CCF
:107970001295107F810F1F9108951F93182F882350
:1079800021F00E94763C1150E1F71F9108951F935A
:10799000182F0E94763C803249F0809103018F5F5E
:1079A000809303018530C1F01F9108958091C0003C
:1079B00085FFFCCF84E18093C6008091C00085FFE5
:1079C000FCCF1093C6008091C00085FFFCCF80E102
:1079D0008093C6001F910895E0910401F091050184
:1079E00009951F9108950E94763C803241F0809164
:1079F00003018F5F80930301853081F008958091AA
:107A0000C00085FFFCCF84E18093C6008091C00058
:107A100085FFFCCF80E18093C6000895E0910401CA
:107A2000F09105010995089540E951E08823A1F0FE
:107A30002D9A28EE33E0FA013197F1F721503040CA
:107A4000D1F72D9828EE33E0FA013197F1F7215064
:107A50003040D1F7815061F708953F924F925F9285
:107A60006F927F928F929F92AF92BF92CF92DF924E
:107A7000EF92FF920F931F93CF93DF93000080E16B
:107A80008093C4001092C50088E18093C10086E015
:107A90008093C2005098589A259A81E00E94143D24
:107AA00024E1F22E9EE1E92E85E9D82E0FE0C02ECA
:107AB00010E1B12EAA24A394B1E49B2EA6E58A2E50
:107AC000F2E57F2EE0E26E2E79E4572E63E5462E36
:107AD00050E5352E0E94763C8033B1F18133B9F107
:107AE000803409F46FC0813409F476C0823409F41B
:107AF00085C0853409F488C0803531F1823521F1A3
:107B0000813511F1853509F485C0863509F48DC0BC
:107B1000843609F496C0843709F403C1853709F423
:107B200072C1863709F466C0809103018F5F80932C
:107B30000301853079F6E0910401F0910501099582
:107B40000E94763C803351F60E94F33CC3CF0E94E2
:107B5000763C803249F78091C00085FFFCCFF092DF
:107B6000C6008091C00085FFFCCF9092C600809136
:107B7000C00085FFFCCF8092C6008091C00085FFC9
:107B8000FCCF7092C6008091C00085FFFCCF609250
:107B9000C6008091C00085FFFCCF5092C600809146
:107BA000C00085FFFCCF4092C6008091C00085FFD9
:107BB000FCCF3092C6008091C00085FFFCCFB09210
:107BC000C60088CF0E94763C863808F4BDCF0E945C
:107BD000763C0E94F33C7ECF0E94763C803809F4CC
:107BE0009CC0813809F40BC1823809F43CC1883942
:107BF00009F48FC080E00E94C73C6CCF84E10E94F2
:107C0000BD3C0E94F33C66CF85E00E94BD3C0E94D3
:107C1000F33C60CF0E94763C809306010E94763C44
:107C2000809307010E94F33C55CF0E94763C80333D
:107C300009F41DC183E00E94BD3C80E00E94C73C66
:107C400049CF0E94763C809309020E94763C809343
:107C5000080280910C028E7F80930C020E94763C79
:107C6000853409F415C18091080290910902892B8D
:107C700089F000E010E00E94763CF801E85FFE4FDA
:107C800080830F5F1F4F80910802909109020817AF
:107C9000190788F30E94763C803209F045CF809125
:107CA0000C0280FF01C16091060170910701660F0F
:107CB000771F7093070160930601A0910802B091AD
:107CC00009021097C9F0E8E0F1E09B01AD014E0F09
:107CD0005F1FF999FECF32BD21BD819180BDFA9A17
:107CE000F99A2F5F3F4FE417F50799F76A0F7B1F4B
:107CF00070930701609306018091C00085FFFCCF5F
:107D0000F092C6008091C00085FFFCCFB092C60003
:107D1000E1CE83E00E94C73CDDCE82E00E94C73CFA
:107D2000D9CE0E94763C809309020E94763C8093D3
:107D300008028091060190910701880F991F909386
:107D40000701809306010E94763C853409F4A6C0A1
:107D500080910C028E7F80930C020E94763C8032D0
:107D600009F0B8CE8091C00085FFFCCFF092C6002C
:107D7000609108027091090261157105B9F140E046
:107D800050E080910C02A82FA170B82FB27011C0E2
:107D9000BB2309F45CC0E0910601F0910701319624
:107DA000F0930701E09306014F5F5F4F46175707B7
:107DB000E8F4AA2369F3F999FECF209106013091E6
:107DC000070132BD21BDF89A90B58091C00085FFB2
:107DD000FCCF9093C6002F5F3F4F30930701209355
:107DE00006014F5F5F4F4617570718F38091C00099
:107DF00085FDE5CE8091C00085FFF8CFE0CE81E023
:107E00000E94C73C67CE0E94763C803209F08CCE3F
:107E10008091C00085FFFCCFF092C6008091C00029
:107E200085FFFCCFE092C6008091C00085FFFCCFAB
:107E3000D092C6008091C00085FFFCCFC092C600E2
:107E40008091C00085FFFCCFB092C60043CEE09188
:107E50000601F091070194918091C00085FFFCCF4D
:107E60009093C6009CCF80E10E94C73C33CE0E9415
:107E7000763C0E94763C182F0E94763C112309F430
:107E800083C0113009F484C08FE00E94C73C22CE29
:107E900080910C02816080930C02E5CE80910C02EF
:107EA000816080930C0259CF809107018823880F4D
:107EB000880B8A2180930B02809106019091070123
:107EC000880F991F90930701809306018091080203
:107ED00080FF09C080910802909109020196909359
:107EE000090280930802F894F999FECF1127E091D6
:107EF0000601F0910701C8E0D1E08091080290915D
:107F00000902103091F40091570001700130D9F34B
:107F100003E000935700E89500915700017001308D
:107F2000D9F301E100935700E89509901990009169
:107F3000570001700130D9F301E000935700E89534
:107F40001395103498F011270091570001700130FB
:107F5000D9F305E000935700E895009157000170B0
:107F60000130D9F301E100935700E895329602976A
:107F700009F0C7CF103011F00296E5CF112480919F
:107F8000C00085FFB9CEBCCE8EE10E94C73CA2CD19
:0E7F900085E90E94C73C9ECDF894FFCF80008B
:00000001FF
